{
  "transactions": [
    {
      "hash": "0xd81ac93794759396a443fca3af520098d99f3dbf9fef40def37b95464bd9c285",
      "transactionType": "CREATE",
      "contractName": "Usuarios",
      "contractAddress": "0xb7f8bc63bbcad18155201308c8f3540b07f84f5e",
      "function": null,
      "arguments": null,
      "transaction": {
        "from": "0xf39fd6e51aad88f6f4ce6ab8827279cfffb92266",
        "gas": "0x233fe1",
        "value": "0x0",
        "input": "0x608060405234801561000f575f5ffd5b50335f5f6101000a81548173ffffffffffffffffffffffffffffffffffffffff021916908373ffffffffffffffffffffffffffffffffffffffff16021790555060016040518060a001604052805f5f9054906101000a900473ffffffffffffffffffffffffffffffffffffffff1673ffffffffffffffffffffffffffffffffffffffff1681526020016040518060400160405280600b81526020017f50726f706965746172696f00000000000000000000000000000000000000000081525081526020016040518060400160405280600581526020017f43616c6c6500000000000000000000000000000000000000000000000000000081525081526020016040518060400160405280600581526020017f41646d696e000000000000000000000000000000000000000000000000000000815250815260200160011515815250908060018154018082558091505060019003905f5260205f2090600502015f909190919091505f820151815f015f6101000a81548173ffffffffffffffffffffffffffffffffffffffff021916908373ffffffffffffffffffffffffffffffffffffffff16021790555060208201518160010190816101cf919061045f565b5060408201518160020190816101e5919061045f565b5060608201518160030190816101fb919061045f565b506080820151816004015f6101000a81548160ff021916908315150217905550505061052e565b5f81519050919050565b7f4e487b71000000000000000000000000000000000000000000000000000000005f52604160045260245ffd5b7f4e487b71000000000000000000000000000000000000000000000000000000005f52602260045260245ffd5b5f600282049050600182168061029d57607f821691505b6020821081036102b0576102af610259565b5b50919050565b5f819050815f5260205f209050919050565b5f6020601f8301049050919050565b5f82821b905092915050565b5f600883026103127fffffffffffffffffffffffffffffffffffffffffffffffffffffffffffffffff826102d7565b61031c86836102d7565b95508019841693508086168417925050509392505050565b5f819050919050565b5f819050919050565b5f61036061035b61035684610334565b61033d565b610334565b9050919050565b5f819050919050565b61037983610346565b61038d61038582610367565b8484546102e3565b825550505050565b5f5f905090565b6103a4610395565b6103af818484610370565b505050565b5b818110156103d2576103c75f8261039c565b6001810190506103b5565b5050565b601f821115610417576103e8816102b6565b6103f1846102c8565b81016020851015610400578190505b61041461040c856102c8565b8301826103b4565b50505b505050565b5f82821c905092915050565b5f6104375f198460080261041c565b1980831691505092915050565b5f61044f8383610428565b9150826002028217905092915050565b61046882610222565b67ffffffffffffffff8111156104815761048061022c565b5b61048b8254610286565b6104968282856103d6565b5f60209050601f8311600181146104c7575f84156104b5578287015190505b6104bf8582610444565b865550610526565b601f1984166104d5866102b6565b5f5b828110156104fc578489015182556001820191506020850194506020810190506104d7565b868310156105195784890151610515601f891682610428565b8355505b6001600288020188555050505b505050505050565b611c128061053b5f395ff3fe608060405234801561000f575f5ffd5b506004361061009c575f3560e01c8063dae5a4e811610064578063dae5a4e814610130578063e53d054614610160578063f09ec28214610190578063f2728343146101c0578063f851a440146101f05761009c565b80632723cab8146100a057806383d98615146100bc5780638c88bc85146100da578063b97382c6146100f6578063c88dfd4014610114575b5f5ffd5b6100ba60048036038101906100b59190611281565b61020e565b005b6100c461054e565b6040516100d191906114fe565b60405180910390f35b6100f460048036038101906100ef919061151e565b6107c8565b005b6100fe6109ed565b60405161010b9190611561565b60405180910390f35b61012e6004803603810190610129919061151e565b6109f9565b005b61014a6004803603810190610145919061151e565b610c1f565b6040516101579190611589565b60405180910390f35b61017a6004803603810190610175919061151e565b610c3c565b60405161018791906115ea565b60405180910390f35b6101aa60048036038101906101a5919061151e565b610dee565b6040516101b79190611589565b60405180910390f35b6101da60048036038101906101d5919061151e565b610f25565b6040516101e79190611561565b60405180910390f35b6101f86110b6565b6040516102059190611619565b60405180910390f35b5f5f9054906101000a900473ffffffffffffffffffffffffffffffffffffffff1673ffffffffffffffffffffffffffffffffffffffff163373ffffffffffffffffffffffffffffffffffffffff161461029c576040517f08c379a0000000000000000000000000000000000000000000000000000000008152600401610293906116a2565b60405180910390fd5b5f73ffffffffffffffffffffffffffffffffffffffff168473ffffffffffffffffffffffffffffffffffffffff160361030a576040517f08c379a00000000000000000000000000000000000000000000000000000000081526004016103019061170a565b60405180910390fd5b60025f8573ffffffffffffffffffffffffffffffffffffffff1673ffffffffffffffffffffffffffffffffffffffff1681526020019081526020015f205f9054906101000a900460ff1615610394576040517f08c379a000000000000000000000000000000000000000000000000000000000815260040161038b90611772565b60405180910390fd5b60016040518060a001604052808673ffffffffffffffffffffffffffffffffffffffff16815260200185815260200184815260200183815260200160011515815250908060018154018082558091505060019003905f5260205f2090600502015f909190919091505f820151815f015f6101000a81548173ffffffffffffffffffffffffffffffffffffffff021916908373ffffffffffffffffffffffffffffffffffffffff1602179055506020820151816001019081610455919061198d565b50604082015181600201908161046b919061198d565b506060820151816003019081610481919061198d565b506080820151816004015f6101000a81548160ff0219169083151502179055505050600160025f8673ffffffffffffffffffffffffffffffffffffffff1673ffffffffffffffffffffffffffffffffffffffff1681526020019081526020015f205f6101000a81548160ff0219169083151502179055508373ffffffffffffffffffffffffffffffffffffffff167fb2981a3c0d488b09991103ed14f8e9ee22e1a06884a6010d0d6d2a52c4504b748483604051610540929190611a5c565b60405180910390a250505050565b60606001805480602002602001604051908101604052809291908181526020015f905b828210156107bf578382905f5260205f2090600502016040518060a00160405290815f82015f9054906101000a900473ffffffffffffffffffffffffffffffffffffffff1673ffffffffffffffffffffffffffffffffffffffff1673ffffffffffffffffffffffffffffffffffffffff1681526020016001820180546105f6906117bd565b80601f0160208091040260200160405190810160405280929190818152602001828054610622906117bd565b801561066d5780601f106106445761010080835404028352916020019161066d565b820191905f5260205f20905b81548152906001019060200180831161065057829003601f168201915b50505050508152602001600282018054610686906117bd565b80601f01602080910402602001604051908101604052809291908181526020018280546106b2906117bd565b80156106fd5780601f106106d4576101008083540402835291602001916106fd565b820191905f5260205f20905b8154815290600101906020018083116106e057829003601f168201915b50505050508152602001600382018054610716906117bd565b80601f0160208091040260200160405190810160405280929190818152602001828054610742906117bd565b801561078d5780601f106107645761010080835404028352916020019161078d565b820191905f5260205f20905b81548152906001019060200180831161077057829003601f168201915b50505050508152602001600482015f9054906101000a900460ff16151515158152505081526020019060010190610571565b50505050905090565b5f5f9054906101000a900473ffffffffffffffffffffffffffffffffffffffff1673ffffffffffffffffffffffffffffffffffffffff163373ffffffffffffffffffffffffffffffffffffffff1614610856576040517f08c379a000000000000000000000000000000000000000000000000000000000815260040161084d906116a2565b60405180910390fd5b5f73ffffffffffffffffffffffffffffffffffffffff168173ffffffffffffffffffffffffffffffffffffffff16036108c4576040517f08c379a00000000000000000000000000000000000000000000000000000000081526004016108bb9061170a565b60405180910390fd5b60025f8273ffffffffffffffffffffffffffffffffffffffff1673ffffffffffffffffffffffffffffffffffffffff1681526020019081526020015f205f9054906101000a900460ff1661094d576040517f08c379a000000000000000000000000000000000000000000000000000000000815260040161094490611adb565b60405180910390fd5b5f600161095983610f25565b8154811061096a57610969611af9565b5b905f5260205f20906005020190505f816004015f6101000a81548160ff0219169083151502179055508173ffffffffffffffffffffffffffffffffffffffff167f72cfb5c7d0a9ea74a72d0901a48cdcc847b3ca98be18467607fd2200f626cf6a82600101836003016040516109e1929190611ba7565b60405180910390a25050565b5f600180549050905090565b5f5f9054906101000a900473ffffffffffffffffffffffffffffffffffffffff1673ffffffffffffffffffffffffffffffffffffffff163373ffffffffffffffffffffffffffffffffffffffff1614610a87576040517f08c379a0000000000000000000000000000000000000000000000000000000008152600401610a7e906116a2565b60405180910390fd5b5f73ffffffffffffffffffffffffffffffffffffffff168173ffffffffffffffffffffffffffffffffffffffff1603610af5576040517f08c379a0000000000000000000000000000000000000000000000000000000008152600401610aec9061170a565b60405180910390fd5b60025f8273ffffffffffffffffffffffffffffffffffffffff1673ffffffffffffffffffffffffffffffffffffffff1681526020019081526020015f205f9054906101000a900460ff16610b7e576040517f08c379a0000000000000000000000000000000000000000000000000000000008152600401610b7590611adb565b60405180910390fd5b5f6001610b8a83610f25565b81548110610b9b57610b9a611af9565b5b905f5260205f20906005020190506001816004015f6101000a81548160ff0219169083151502179055508173ffffffffffffffffffffffffffffffffffffffff167f72cfb5c7d0a9ea74a72d0901a48cdcc847b3ca98be18467607fd2200f626cf6a8260010183600301604051610c13929190611ba7565b60405180910390a25050565b6002602052805f5260405f205f915054906101000a900460ff1681565b60605f73ffffffffffffffffffffffffffffffffffffffff168273ffffffffffffffffffffffffffffffffffffffff1603610cac576040517f08c379a0000000000000000000000000000000000000000000000000000000008152600401610ca39061170a565b60405180910390fd5b60025f8373ffffffffffffffffffffffffffffffffffffffff1673ffffffffffffffffffffffffffffffffffffffff1681526020019081526020015f205f9054906101000a900460ff16610d35576040517f08c379a0000000000000000000000000000000000000000000000000000000008152600401610d2c90611adb565b60405180910390fd5b6001610d4083610f25565b81548110610d5157610d50611af9565b5b905f5260205f2090600502016003018054610d6b906117bd565b80601f0160208091040260200160405190810160405280929190818152602001828054610d97906117bd565b8015610de25780601f10610db957610100808354040283529160200191610de2565b820191905f5260205f20905b815481529060010190602001808311610dc557829003601f168201915b50505050509050919050565b5f5f73ffffffffffffffffffffffffffffffffffffffff168273ffffffffffffffffffffffffffffffffffffffff1603610e5d576040517f08c379a0000000000000000000000000000000000000000000000000000000008152600401610e549061170a565b60405180910390fd5b60025f8373ffffffffffffffffffffffffffffffffffffffff1673ffffffffffffffffffffffffffffffffffffffff1681526020019081526020015f205f9054906101000a900460ff16610ee6576040517f08c379a0000000000000000000000000000000000000000000000000000000008152600401610edd90611adb565b60405180910390fd5b6001610ef183610f25565b81548110610f0257610f01611af9565b5b905f5260205f2090600502016004015f9054906101000a900460ff169050919050565b5f5f73ffffffffffffffffffffffffffffffffffffffff168273ffffffffffffffffffffffffffffffffffffffff1603610f94576040517f08c379a0000000000000000000000000000000000000000000000000000000008152600401610f8b9061170a565b60405180910390fd5b60025f8373ffffffffffffffffffffffffffffffffffffffff1673ffffffffffffffffffffffffffffffffffffffff1681526020019081526020015f205f9054906101000a900460ff1661101d576040517f08c379a000000000000000000000000000000000000000000000000000000000815260040161101490611adb565b60405180910390fd5b5f90505b6001805490508110156110b0578173ffffffffffffffffffffffffffffffffffffffff166001828154811061105957611058611af9565b5b905f5260205f2090600502015f015f9054906101000a900473ffffffffffffffffffffffffffffffffffffffff1673ffffffffffffffffffffffffffffffffffffffff1603156110b1578080600101915050611021565b5b919050565b5f5f9054906101000a900473ffffffffffffffffffffffffffffffffffffffff1681565b5f604051905090565b5f5ffd5b5f5ffd5b5f73ffffffffffffffffffffffffffffffffffffffff82169050919050565b5f611114826110eb565b9050919050565b6111248161110a565b811461112e575f5ffd5b50565b5f8135905061113f8161111b565b92915050565b5f5ffd5b5f5ffd5b5f601f19601f8301169050919050565b7f4e487b71000000000000000000000000000000000000000000000000000000005f52604160045260245ffd5b6111938261114d565b810181811067ffffffffffffffff821117156111b2576111b161115d565b5b80604052505050565b5f6111c46110da565b90506111d0828261118a565b919050565b5f67ffffffffffffffff8211156111ef576111ee61115d565b5b6111f88261114d565b9050602081019050919050565b828183375f83830152505050565b5f611225611220846111d5565b6111bb565b90508281526020810184848401111561124157611240611149565b5b61124c848285611205565b509392505050565b5f82601f83011261126857611267611145565b5b8135611278848260208601611213565b91505092915050565b5f5f5f5f60808587031215611299576112986110e3565b5b5f6112a687828801611131565b945050602085013567ffffffffffffffff8111156112c7576112c66110e7565b5b6112d387828801611254565b935050604085013567ffffffffffffffff8111156112f4576112f36110e7565b5b61130087828801611254565b925050606085013567ffffffffffffffff811115611321576113206110e7565b5b61132d87828801611254565b91505092959194509250565b5f81519050919050565b5f82825260208201905092915050565b5f819050602082019050919050565b61136b8161110a565b82525050565b5f81519050919050565b5f82825260208201905092915050565b8281835e5f83830152505050565b5f6113a382611371565b6113ad818561137b565b93506113bd81856020860161138b565b6113c68161114d565b840191505092915050565b5f8115159050919050565b6113e5816113d1565b82525050565b5f60a083015f8301516114005f860182611362565b50602083015184820360208601526114188282611399565b915050604083015184820360408601526114328282611399565b9150506060830151848203606086015261144c8282611399565b915050608083015161146160808601826113dc565b508091505092915050565b5f61147783836113eb565b905092915050565b5f602082019050919050565b5f61149582611339565b61149f8185611343565b9350836020820285016114b185611353565b805f5b858110156114ec57848403895281516114cd858261146c565b94506114d88361147f565b925060208a019950506001810190506114b4565b50829750879550505050505092915050565b5f6020820190508181035f830152611516818461148b565b905092915050565b5f60208284031215611533576115326110e3565b5b5f61154084828501611131565b91505092915050565b5f819050919050565b61155b81611549565b82525050565b5f6020820190506115745f830184611552565b92915050565b611583816113d1565b82525050565b5f60208201905061159c5f83018461157a565b92915050565b5f82825260208201905092915050565b5f6115bc82611371565b6115c681856115a2565b93506115d681856020860161138b565b6115df8161114d565b840191505092915050565b5f6020820190508181035f83015261160281846115b2565b905092915050565b6116138161110a565b82525050565b5f60208201905061162c5f83018461160a565b92915050565b7f536f6c6f20656c2041646d696e207075656465206c6c616d61722061206573745f8201527f612066756e63696f6e0000000000000000000000000000000000000000000000602082015250565b5f61168c6029836115a2565b915061169782611632565b604082019050919050565b5f6020820190508181035f8301526116b981611680565b9050919050565b7f446972656363696f6e206e6f2076616c696461000000000000000000000000005f82015250565b5f6116f46013836115a2565b91506116ff826116c0565b602082019050919050565b5f6020820190508181035f830152611721816116e8565b9050919050565b7f4c6120646972656363696f6e20796120657869737465000000000000000000005f82015250565b5f61175c6016836115a2565b915061176782611728565b602082019050919050565b5f6020820190508181035f83015261178981611750565b9050919050565b7f4e487b71000000000000000000000000000000000000000000000000000000005f52602260045260245ffd5b5f60028204905060018216806117d457607f821691505b6020821081036117e7576117e6611790565b5b50919050565b5f819050815f5260205f209050919050565b5f6020601f8301049050919050565b5f82821b905092915050565b5f600883026118497fffffffffffffffffffffffffffffffffffffffffffffffffffffffffffffffff8261180e565b611853868361180e565b95508019841693508086168417925050509392505050565b5f819050919050565b5f61188e61188961188484611549565b61186b565b611549565b9050919050565b5f819050919050565b6118a783611874565b6118bb6118b382611895565b84845461181a565b825550505050565b5f5f905090565b6118d26118c3565b6118dd81848461189e565b505050565b5b81811015611900576118f55f826118ca565b6001810190506118e3565b5050565b601f82111561194557611916816117ed565b61191f846117ff565b8101602085101561192e578190505b61194261193a856117ff565b8301826118e2565b50505b505050565b5f82821c905092915050565b5f6119655f198460080261194a565b1980831691505092915050565b5f61197d8383611956565b9150826002028217905092915050565b61199682611371565b67ffffffffffffffff8111156119af576119ae61115d565b5b6119b982546117bd565b6119c4828285611904565b5f60209050601f8311600181146119f5575f84156119e3578287015190505b6119ed8582611972565b865550611a54565b601f198416611a03866117ed565b5f5b82811015611a2a57848901518255600182019150602085019450602081019050611a05565b86831015611a475784890151611a43601f891682611956565b8355505b6001600288020188555050505b505050505050565b5f6040820190508181035f830152611a7481856115b2565b90508181036020830152611a8881846115b2565b90509392505050565b7f4c6120646972656363696f6e206e6f20657869737465000000000000000000005f82015250565b5f611ac56016836115a2565b9150611ad082611a91565b602082019050919050565b5f6020820190508181035f830152611af281611ab9565b9050919050565b7f4e487b71000000000000000000000000000000000000000000000000000000005f52603260045260245ffd5b5f8154611b32816117bd565b611b3c81866115a2565b9450600182165f8114611b565760018114611b6c57611b9e565b60ff198316865281151560200286019350611b9e565b611b75856117ed565b5f5b83811015611b9657815481890152600182019150602081019050611b77565b808801955050505b50505092915050565b5f6040820190508181035f830152611bbf8185611b26565b90508181036020830152611bd38184611b26565b9050939250505056fea264697066735822122003ba6910cb75c27fd5ef593eccc062b4826ae1177c2111a9221c3c4691e6018164736f6c634300081c0033",
        "nonce": "0xb",
        "chainId": "0x165f1"
      },
      "additionalContracts": [],
      "isFixedGasLimit": false
    },
    {
      "hash": "0x20cc6d35adf64d3e5becc62e2c3365a20cda295820a3f2d8512c4d330bf0ddef",
      "transactionType": "CALL",
      "contractName": "Usuarios",
      "contractAddress": "0xb7f8bc63bbcad18155201308c8f3540b07f84f5e",
      "function": "nuevoUsuario(address,string,string,string)",
      "arguments": [
        "0x70997970C51812dc3A010C7d01b50e0d17dc79C8",
        "Productor 1",
        "37.8847,-4.7792",
        "productor"
      ],
      "transaction": {
        "from": "0xf39fd6e51aad88f6f4ce6ab8827279cfffb92266",
        "to": "0xb7f8bc63bbcad18155201308c8f3540b07f84f5e",
        "gas": "0x3d41b",
        "value": "0x0",
        "input": "0x2723cab800000000000000000000000070997970c51812dc3a010c7d01b50e0d17dc79c8000000000000000000000000000000000000000000000000000000000000008000000000000000000000000000000000000000000000000000000000000000c00000000000000000000000000000000000000000000000000000000000000100000000000000000000000000000000000000000000000000000000000000000b50726f647563746f722031000000000000000000000000000000000000000000000000000000000000000000000000000000000000000000000000000000000f33372e383834372c2d342e373739320000000000000000000000000000000000000000000000000000000000000000000000000000000000000000000000000970726f647563746f720000000000000000000000000000000000000000000000",
        "nonce": "0xc",
        "chainId": "0x165f1"
      },
      "additionalContracts": [],
      "isFixedGasLimit": false
    },
    {
      "hash": "0x8e03459eba295e10b91d8755a9b80f48c137071a0c4854b7af36361bc3d6b9f8",
      "transactionType": "CALL",
      "contractName": "Usuarios",
      "contractAddress": "0xb7f8bc63bbcad18155201308c8f3540b07f84f5e",
      "function": "nuevoUsuario(address,string,string,string)",
      "arguments": [
        "0x90F79bf6EB2c4f870365E785982E1f101E93b906",
        "Fabrica 1",
        "42.043863584358185, 3.1300091754146946",
        "fabrica"
      ],
      "transaction": {
        "from": "0xf39fd6e51aad88f6f4ce6ab8827279cfffb92266",
        "to": "0xb7f8bc63bbcad18155201308c8f3540b07f84f5e",
        "gas": "0x4d3d2",
        "value": "0x0",
        "input": "0x2723cab800000000000000000000000090f79bf6eb2c4f870365e785982e1f101e93b906000000000000000000000000000000000000000000000000000000000000008000000000000000000000000000000000000000000000000000000000000000c0000000000000000000000000000000000000000000000000000000000000012000000000000000000000000000000000000000000000000000000000000000094661627269636120310000000000000000000000000000000000000000000000000000000000000000000000000000000000000000000000000000000000002634322e3034333836333538343335383138352c20332e31333030303931373534313436393436000000000000000000000000000000000000000000000000000000000000000000000000000000000000000000000000000000000000000000076661627269636100000000000000000000000000000000000000000000000000",
        "nonce": "0xd",
        "chainId": "0x165f1"
      },
      "additionalContracts": [],
      "isFixedGasLimit": false
    },
    {
      "hash": "0x94d301c7be0eb903e668538538f32516f3655f83418a0994d885d36460a70f14",
      "transactionType": "CALL",
      "contractName": "Usuarios",
      "contractAddress": "0xb7f8bc63bbcad18155201308c8f3540b07f84f5e",
      "function": "nuevoUsuario(address,string,string,string)",
      "arguments": [
        "0x9965507D1a55bcC2695C58ba16FB37d819B0A4dc",
        "Minorista 1",
        "42.91175372414766, -3.3297968667543394",
        "minorista"
      ],
      "transaction": {
        "from": "0xf39fd6e51aad88f6f4ce6ab8827279cfffb92266",
        "to": "0xb7f8bc63bbcad18155201308c8f3540b07f84f5e",
        "gas": "0x4d418",
        "value": "0x0",
        "input": "0x2723cab80000000000000000000000009965507d1a55bcc2695c58ba16fb37d819b0a4dc000000000000000000000000000000000000000000000000000000000000008000000000000000000000000000000000000000000000000000000000000000c00000000000000000000000000000000000000000000000000000000000000120000000000000000000000000000000000000000000000000000000000000000b4d696e6f72697374612031000000000000000000000000000000000000000000000000000000000000000000000000000000000000000000000000000000002634322e39313137353337323431343736362c202d332e33323937393638363637353433333934000000000000000000000000000000000000000000000000000000000000000000000000000000000000000000000000000000000000000000096d696e6f72697374610000000000000000000000000000000000000000000000",
        "nonce": "0xe",
        "chainId": "0x165f1"
      },
      "additionalContracts": [],
      "isFixedGasLimit": false
    }
  ],
  "receipts": [
    {
      "status": "0x1",
      "cumulativeGasUsed": "0x1b1d72",
      "logs": [],
      "logsBloom": "0x00000000000000000000000000000000000000000000000000000000000000000000000000000000000000000000000000000000000000000000000000000000000000000000000000000000000000000000000000000000000000000000000000000000000000000000000000000000000000000000000000000000000000000000000000000000000000000000000000000000000000000000000000000000000000000000000000000000000000000000000000000000000000000000000000000000000000000000000000000000000000000000000000000000000000000000000000000000000000000000000000000000000000000000000000000000",
      "type": "0x2",
      "transactionHash": "0xd81ac93794759396a443fca3af520098d99f3dbf9fef40def37b95464bd9c285",
      "transactionIndex": "0x0",
      "blockHash": "0x1445343eaf2e1bf430bd5d2539f65e215392d3ace5401f6779c8ef2a8b752c95",
      "blockNumber": "0x6",
      "gasUsed": "0x1b1d72",
      "effectiveGasPrice": "0x25218ca7",
      "blobGasPrice": "0x1",
      "from": "0xf39fd6e51aad88f6f4ce6ab8827279cfffb92266",
      "to": null,
      "contractAddress": "0xb7f8bc63bbcad18155201308c8f3540b07f84f5e"
    },
    {
      "status": "0x1",
      "cumulativeGasUsed": "0x1dbb9b",
      "logs": [
        {
          "address": "0xb7f8bc63bbcad18155201308c8f3540b07f84f5e",
          "topics": [
            "0xb2981a3c0d488b09991103ed14f8e9ee22e1a06884a6010d0d6d2a52c4504b74",
            "0x00000000000000000000000070997970c51812dc3a010c7d01b50e0d17dc79c8"
          ],
          "data": "0x00000000000000000000000000000000000000000000000000000000000000400000000000000000000000000000000000000000000000000000000000000080000000000000000000000000000000000000000000000000000000000000000b50726f647563746f722031000000000000000000000000000000000000000000000000000000000000000000000000000000000000000000000000000000000970726f647563746f720000000000000000000000000000000000000000000000",
          "blockHash": "0x1445343eaf2e1bf430bd5d2539f65e215392d3ace5401f6779c8ef2a8b752c95",
          "blockNumber": "0x6",
          "blockTimestamp": "0x68021296",
          "transactionHash": "0x20cc6d35adf64d3e5becc62e2c3365a20cda295820a3f2d8512c4d330bf0ddef",
          "transactionIndex": "0x1",
          "logIndex": "0x0",
          "removed": false
        }
      ],
      "logsBloom": "0x00000000100000000002000000000000000000000041000000000000000000000000000000000000000000000000000000000000000000000000000000000000000000000000000000000000000000000000800000000000080000000000000000000800000000000000000000000000000000000000000000000000000000000000000000000000000000000000000000000000000000000000000000000000000000000000000000000000000000000000000000000000000000000000000000000000000000000000000000000000000000000000000000000000000004000000000000000000000000000000000001000000000000000000000000000000",
      "type": "0x2",
      "transactionHash": "0x20cc6d35adf64d3e5becc62e2c3365a20cda295820a3f2d8512c4d330bf0ddef",
      "transactionIndex": "0x1",
      "blockHash": "0x1445343eaf2e1bf430bd5d2539f65e215392d3ace5401f6779c8ef2a8b752c95",
      "blockNumber": "0x6",
      "gasUsed": "0x29e29",
      "effectiveGasPrice": "0x25218ca7",
      "blobGasPrice": "0x1",
      "from": "0xf39fd6e51aad88f6f4ce6ab8827279cfffb92266",
      "to": "0xb7f8bc63bbcad18155201308c8f3540b07f84f5e",
      "contractAddress": null
    },
    {
      "status": "0x1",
      "cumulativeGasUsed": "0x34d02",
      "logs": [
        {
          "address": "0xb7f8bc63bbcad18155201308c8f3540b07f84f5e",
          "topics": [
            "0xb2981a3c0d488b09991103ed14f8e9ee22e1a06884a6010d0d6d2a52c4504b74",
            "0x00000000000000000000000090f79bf6eb2c4f870365e785982e1f101e93b906"
          ],
          "data": "0x000000000000000000000000000000000000000000000000000000000000004000000000000000000000000000000000000000000000000000000000000000800000000000000000000000000000000000000000000000000000000000000009466162726963612031000000000000000000000000000000000000000000000000000000000000000000000000000000000000000000000000000000000000076661627269636100000000000000000000000000000000000000000000000000",
          "blockHash": "0xbdbe8cc62e52b807552b7bc18ab25e8551be19ecfa75b1e681f3b3756af3d982",
          "blockNumber": "0x7",
          "blockTimestamp": "0x68021296",
          "transactionHash": "0x8e03459eba295e10b91d8755a9b80f48c137071a0c4854b7af36361bc3d6b9f8",
          "transactionIndex": "0x0",
          "logIndex": "0x0",
          "removed": false
        }
      ],
      "logsBloom": "0x00000000100000000000000000000000000000000041000000000000000000000000000000000000000000000000000000000000000000000000000000000000000000000000000000000000000000000000800000000000080000000000000000000000000000000000000000000000000000000000000000000000000000000000000000000000000000000000000000000000000000000400000000000000000000000000000000000000000000000000000000000000000000000000000000000000000000000000000000000000400000000000000000000000000004000000000000000000000010000000000000000000000000000000000000000000",
      "type": "0x2",
      "transactionHash": "0x8e03459eba295e10b91d8755a9b80f48c137071a0c4854b7af36361bc3d6b9f8",
      "transactionIndex": "0x0",
      "blockHash": "0xbdbe8cc62e52b807552b7bc18ab25e8551be19ecfa75b1e681f3b3756af3d982",
      "blockNumber": "0x7",
      "gasUsed": "0x34d02",
      "effectiveGasPrice": "0x2117b52e",
      "blobGasPrice": "0x1",
      "from": "0xf39fd6e51aad88f6f4ce6ab8827279cfffb92266",
      "to": "0xb7f8bc63bbcad18155201308c8f3540b07f84f5e",
      "contractAddress": null
    },
    {
      "status": "0x1",
      "cumulativeGasUsed": "0x69a34",
      "logs": [
        {
          "address": "0xb7f8bc63bbcad18155201308c8f3540b07f84f5e",
          "topics": [
            "0xb2981a3c0d488b09991103ed14f8e9ee22e1a06884a6010d0d6d2a52c4504b74",
            "0x0000000000000000000000009965507d1a55bcc2695c58ba16fb37d819b0a4dc"
          ],
          "data": "0x00000000000000000000000000000000000000000000000000000000000000400000000000000000000000000000000000000000000000000000000000000080000000000000000000000000000000000000000000000000000000000000000b4d696e6f7269737461203100000000000000000000000000000000000000000000000000000000000000000000000000000000000000000000000000000000096d696e6f72697374610000000000000000000000000000000000000000000000",
          "blockHash": "0xbdbe8cc62e52b807552b7bc18ab25e8551be19ecfa75b1e681f3b3756af3d982",
          "blockNumber": "0x7",
          "blockTimestamp": "0x68021296",
          "transactionHash": "0x94d301c7be0eb903e668538538f32516f3655f83418a0994d885d36460a70f14",
          "transactionIndex": "0x1",
          "logIndex": "0x1",
          "removed": false
        }
      ],
      "logsBloom": "0x00000004100000000000000000000000000000000041000000000000000000000000000000000000000000000000000000000000000000000000000000000000000000000000000000000000000000000000800000008000080000000000000000000000000000000000000000000000000000000000000000000000000000000000000000000000000000000000000000000000000000000000000000000000000000000000000000000000000000000000000000000000000000000000000000000000800000000000000000000000000000000000000000000000000004000000000000000000000000000000000000000000000000000000000000000000",
      "type": "0x2",
      "transactionHash": "0x94d301c7be0eb903e668538538f32516f3655f83418a0994d885d36460a70f14",
      "transactionIndex": "0x1",
      "blockHash": "0xbdbe8cc62e52b807552b7bc18ab25e8551be19ecfa75b1e681f3b3756af3d982",
      "blockNumber": "0x7",
      "gasUsed": "0x34d32",
      "effectiveGasPrice": "0x2117b52e",
      "blobGasPrice": "0x1",
      "from": "0xf39fd6e51aad88f6f4ce6ab8827279cfffb92266",
      "to": "0xb7f8bc63bbcad18155201308c8f3540b07f84f5e",
      "contractAddress": null
    }
  ],
  "libraries": [],
  "pending": [],
  "returns": {},
  "timestamp": 1744966295,
  "chain": 91633,
  "commit": "27f1908"
}